:020000020000FC
:1000000004E00EBF0FE50DBF0E9433000E941300F5
:100010000E94380040FD0E9413004030B9F355277C
:1000200066270E9417004427C8994A9508950E94A0
:1000300038000E943800643069F079B3362F3030D0
:1000400021F4570F63950C941700770F3A953030D1
:10005000E1F70895569558BB55270E9438000E9435
:1000600013000C940D0000270ABB0FE807BB08958E
:10007000C79A0AE01FE11A95F1F70A95D9F7C798D0
:020080000895E1
:00000001FF
