:020000020000FC
:100000000C9406000C941E000C943B0004E00EBF00
:100010000FE50DBF0FE70ABB03E007BB002701BBDD
:10002000009300010093010100930201009303017A
:100030000AE005BF00EC0BBF7894FFCF0F930FB71A
:100040000F931F931127B1E0A0E00C9103950A30A4
:1000500061F400270D9313950C910395063029F454
:1000600000270D931395143081F70C931F910F9176
:100070000FBF0F9118950F930FB70F931F93F4E0D5
:10008000E0E0B1E0A0E00CD00ED01395143009F4FC
:100090001127109304011F910F910FBF0F91189515
:1000A000109104010895EF93AF93A10F0C91E00F0D
:0C00B0000491AF91EF9118BB0BBB0895B9
:0A0400003F065B4F666D7D077F67C6
:00000001FF
