:020000020000FC
:1000000004E00EBF0FE50DBF01E00ABBF0E0E8E938
:100010003CE637D00AD02030C9F3203209F1215410
:10002000FAF02A31E8F403D00DC025910895FF932A
:10003000EF93F4E0E0E0E20F2491EF91FF91089557
:10004000221F08954FEFFCDF422311F318F034E232
:1000500014D002C03CE611D034E213D08894F2CF21
:1000600030E90FD0D5CFD89A10D0D8980ED00895B7
:10007000D8980BD0D89809D00895F5DF3A95E9F7CC
:100080000895F6DF3A95E9F708950AE01FE11A9519
:10009000F1F70A95D9F708954441544F52615445F8
:0A00A0004B4E494B3F5945532000D9
:100400006088A8904028D0082078B048E0A0F06824
:0A041000D85010C030187098B8C81A
:00000001FF
