:020000020000FC
:0200000002C03C
:100004001BC004E00EBF0FE50DBFA9D0B4C03FD0A4
:10001400DAD08BD028E7F2D0009160001091610013
:100024002091620030916300021729F4131719F428
:1000340022E3D9D0A0D0EBCF1F930F930FB70F9328
:10004400112718BB00916A00039500936A0005D03C
:100054000F910FBF0F911F911895AF93BF9300910C
:100064006400B0E0A5E6A00FB11F1C91BF91AF9151
:1000740002950BBB0295000000000000000018BBB5
:100084000395053009F4002700936400089500E007
:1000940006D013D001E003D021D031D0089510E66A
:1000A400010F07B900E806B902D008950895369AF9
:1000B4003699FECF05B1007C0895003C19F000305C
:1000C40039F01CC0009160000A950093600016C0CE
:1000D4000091600003950093600010C0003C49F05B
:1000E400003009F00BC0009161000A950093610093
:1000F40005C000916100039500936100089501D04B
:1001040008950091600017E009D000936000009109
:10011400610015E003D000936100089500601AF0B7
:10012400011711F4025003950895FF27E0E60E9499
:10013400A000FF27E2E60E94A000089511910E940A
:10014400AA001081E5E6E10F1081102B10830895B9
:1001540001E01A951AF0000F0C94AB0008950FEF0C
:1001640007BB00E70ABB002701BB0AE005BF00E4A8
:100174000BBF789408950BD00F920F9211D00F906B
:10018400009262000F90009263001DD040CF0F9345
:1001940000270093600002E0009361000F9108952E
:1001A4000EB7F02F0DB7E02F00916A0007D00E5F55
:1001B400038300916A0002D0048308950770053018
:1001C40008F004500895AF93BF930F931F93B0E0CA
:1001D400A5E615E000270D931A95E9F71F910F91F5
:1001E400BF91AF910895F89404D02A95E1F77894DB
:1001F4000895C79A07D0C79805D0089503D02A95C3
:10020400E9F708950AE01FE11A95F1F70A95D9F77D
:0202140008954B
:00000001FF
